{"abi":[{"type":"constructor","inputs":[{"name":"price_","type":"uint256","internalType":"uint256"}],"stateMutability":"nonpayable"},{"type":"function","name":"getPrice","inputs":[],"outputs":[{"name":"","type":"uint256","internalType":"uint256"}],"stateMutability":"view"},{"type":"function","name":"price","inputs":[],"outputs":[{"name":"","type":"uint256","internalType":"uint256"}],"stateMutability":"view"},{"type":"function","name":"setPrice","inputs":[{"name":"newPrice","type":"uint256","internalType":"uint256"}],"outputs":[],"stateMutability":"nonpayable"}],"bytecode":{"object":"0x608060405234801561000f575f80fd5b5060405161010f38038061010f83398101604081905261002e91610035565b5f5561004c565b5f60208284031215610045575f80fd5b5051919050565b60b7806100585f395ff3fe6080604052348015600e575f80fd5b5060043610603a575f3560e01c806391b7f5ed14603e57806398d5fdca14604f578063a035b1fe146064575b5f80fd5b604d6049366004606b565b5f55565b005b5f545b60405190815260200160405180910390f35b60525f5481565b5f60208284031215607a575f80fd5b503591905056fea26469706673582212202fc6547394081ab75adaee1ef0b42b96c30f3b936a210e0e7188a67203ae32bc64736f6c63430008180033","linkReferences":{}},"methodIdentifiers":{"getPrice()":"98d5fdca","price()":"a035b1fe","setPrice(uint256)":"91b7f5ed"},"id":27}