{"abi":[{"type":"constructor","inputs":[{"name":"collateralToken_","type":"address","internalType":"address"},{"name":"debtToken_","type":"address","internalType":"address"},{"name":"oracle_","type":"address","internalType":"address"},{"name":"borrowRatePerSecond_","type":"uint256","internalType":"uint256"}],"stateMutability":"nonpayable"},{"type":"function","name":"LIQUIDATION_BONUS","inputs":[],"outputs":[{"name":"","type":"uint256","internalType":"uint256"}],"stateMutability":"view"},{"type":"function","name":"LIQUIDATION_THRESHOLD","inputs":[],"outputs":[{"name":"","type":"uint256","internalType":"uint256"}],"stateMutability":"view"},{"type":"function","name":"MAX_LTV","inputs":[],"outputs":[{"name":"","type":"uint256","internalType":"uint256"}],"stateMutability":"view"},{"type":"function","name":"PRECISION","inputs":[],"outputs":[{"name":"","type":"uint256","internalType":"uint256"}],"stateMutability":"view"},{"type":"function","name":"borrow","inputs":[{"name":"amount","type":"uint256","internalType":"uint256"}],"outputs":[],"stateMutability":"nonpayable"},{"type":"function","name":"borrowRatePerSecond","inputs":[],"outputs":[{"name":"","type":"uint256","internalType":"uint256"}],"stateMutability":"view"},{"type":"function","name":"collateralToken","inputs":[],"outputs":[{"name":"","type":"address","internalType":"contract IERC20"}],"stateMutability":"view"},{"type":"function","name":"debtOf","inputs":[{"name":"user","type":"address","internalType":"address"}],"outputs":[{"name":"","type":"uint256","internalType":"uint256"}],"stateMutability":"view"},{"type":"function","name":"debtToken","inputs":[],"outputs":[{"name":"","type":"address","internalType":"contract IERC20"}],"stateMutability":"view"},{"type":"function","name":"deposit","inputs":[{"name":"amount","type":"uint256","internalType":"uint256"}],"outputs":[],"stateMutability":"nonpayable"},{"type":"function","name":"getUserPosition","inputs":[{"name":"user","type":"address","internalType":"address"}],"outputs":[{"name":"deposited","type":"uint256","internalType":"uint256"},{"name":"borrowed","type":"uint256","internalType":"uint256"},{"name":"hf","type":"uint256","internalType":"uint256"}],"stateMutability":"view"},{"type":"function","name":"healthFactor","inputs":[{"name":"user","type":"address","internalType":"address"}],"outputs":[{"name":"","type":"uint256","internalType":"uint256"}],"stateMutability":"view"},{"type":"function","name":"liquidate","inputs":[{"name":"user","type":"address","internalType":"address"},{"name":"repayAmount","type":"uint256","internalType":"uint256"}],"outputs":[{"name":"repaid","type":"uint256","internalType":"uint256"},{"name":"collateralSeized","type":"uint256","internalType":"uint256"}],"stateMutability":"nonpayable"},{"type":"function","name":"maxBorrowable","inputs":[{"name":"user","type":"address","internalType":"address"}],"outputs":[{"name":"","type":"uint256","internalType":"uint256"}],"stateMutability":"view"},{"type":"function","name":"oracle","inputs":[],"outputs":[{"name":"","type":"address","internalType":"contract IPriceOracle"}],"stateMutability":"view"},{"type":"function","name":"positions","inputs":[{"name":"","type":"address","internalType":"address"}],"outputs":[{"name":"collateral","type":"uint256","internalType":"uint256"},{"name":"debt","type":"uint256","internalType":"uint256"},{"name":"lastAccrued","type":"uint256","internalType":"uint256"}],"stateMutability":"view"},{"type":"function","name":"repay","inputs":[{"name":"amount","type":"uint256","internalType":"uint256"}],"outputs":[{"name":"paid","type":"uint256","internalType":"uint256"}],"stateMutability":"nonpayable"},{"type":"function","name":"withdraw","inputs":[{"name":"amount","type":"uint256","internalType":"uint256"}],"outputs":[],"stateMutability":"nonpayable"},{"type":"event","name":"Borrow","inputs":[{"name":"user","type":"address","indexed":true,"internalType":"address"},{"name":"amount","type":"uint256","indexed":false,"internalType":"uint256"}],"anonymous":false},{"type":"event","name":"Deposit","inputs":[{"name":"user","type":"address","indexed":true,"internalType":"address"},{"name":"amount","type":"uint256","indexed":false,"internalType":"uint256"}],"anonymous":false},{"type":"event","name":"Liquidate","inputs":[{"name":"liquidator","type":"address","indexed":true,"internalType":"address"},{"name":"user","type":"address","indexed":true,"internalType":"address"},{"name":"repaid","type":"uint256","indexed":false,"internalType":"uint256"},{"name":"collateralSeized","type":"uint256","indexed":false,"internalType":"uint256"}],"anonymous":false},{"type":"event","name":"Repay","inputs":[{"name":"user","type":"address","indexed":true,"internalType":"address"},{"name":"amount","type":"uint256","indexed":false,"internalType":"uint256"}],"anonymous":false},{"type":"event","name":"Withdraw","inputs":[{"name":"user","type":"address","indexed":true,"internalType":"address"},{"name":"amount","type":"uint256","indexed":false,"internalType":"uint256"}],"anonymous":false},{"type":"error","name":"ExceedsMaxLtv","inputs":[]},{"type":"error","name":"HealthFactorTooLow","inputs":[]},{"type":"error","name":"InsufficientCollateral","inputs":[]},{"type":"error","name":"InsufficientPoolLiquidity","inputs":[]},{"type":"error","name":"NoDebt","inputs":[]},{"type":"error","name":"PositionHealthy","inputs":[]},{"type":"error","name":"Reentrancy","inputs":[]},{"type":"error","name":"ZeroAmount","inputs":[]}],"bytecode":{"object":"0x61010060405260015f55348015610014575f80fd5b50604051620013ff380380620013ff83398101604081905261003591610072565b6001600160a01b0393841660805291831660a05290911660c05260e0526100ba565b80516001600160a01b038116811461006d575f80fd5b919050565b5f805f8060808587031215610085575f80fd5b61008e85610057565b935061009c60208601610057565b92506100aa60408601610057565b6060959095015193969295505050565b60805160a05160c05160e0516112c46200013b5f395f818161015d0152610f5301525f8181610205015281816109730152818161102501526110d901525f81816102e30152818161059b01528181610b1401528181610d5c0152610e1501525f818161025b015281816103fc015281816107db0152610bbf01526112c45ff3fe608060405234801561000f575f80fd5b5060043610610111575f3560e01c806381bf8d3d1161009e578063b6b55f251161006e578063b6b55f251461027d578063bcbaf48714610290578063c5ebeaec146102b8578063d283e75f146102cb578063f8d89898146102de575f80fd5b806381bf8d3d1461023f57806390a8ae9b1461023f578063aaf5eb6814610247578063b2016bd414610256575f80fd5b806353696eb8116100e457806353696eb81461017f57806355f57510146101925780635b7c2dad146101da5780636ad9f9df146101ed5780637dc0d1d014610200575f80fd5b80632e1a7d4d146101155780633574d4c41461012a578063371fd8e6146101455780635260975014610158575b5f80fd5b610128610123366004611175565b610305565b005b610132600581565b6040519081526020015b60405180910390f35b610132610153366004611175565b6104ca565b6101327f000000000000000000000000000000000000000000000000000000000000000081565b61013261018d3660046111a7565b61066a565b6101bf6101a03660046111a7565b600160208190525f918252604090912080549181015460029091015483565b6040805193845260208401929092529082015260600161013c565b6101bf6101e83660046111a7565b610691565b6101326101fb3660046111a7565b6106f1565b6102277f000000000000000000000000000000000000000000000000000000000000000081565b6040516001600160a01b03909116815260200161013c565b610132604b81565b610132670de0b6b3a764000081565b6102277f000000000000000000000000000000000000000000000000000000000000000081565b61012861028b366004611175565b610745565b6102a361029e3660046111c0565b6108a6565b6040805192835260208301919091520161013c565b6101286102c6366004611175565b610ca4565b6101326102d93660046111a7565b610ed6565b6102277f000000000000000000000000000000000000000000000000000000000000000081565b60025f54036103275760405163558a1e0360e11b815260040160405180910390fd5b60025f55600181101561034d57604051631f2a200560e01b815260040160405180910390fd5b61035633610fb0565b335f908152600160205260409020805482111561038657604051633a23d82560e01b815260040160405180910390fd5b80545f906103959084906111fc565b90505f82600101541180156103bf5750670de0b6b3a76400006103bc828460010154611004565b11155b156103dd5760405163317416e560e11b815260040160405180910390fd5b80825560405163a9059cbb60e01b8152336004820152602481018490527f00000000000000000000000000000000000000000000000000000000000000006001600160a01b03169063a9059cbb906044016020604051808303815f875af115801561044a573d5f803e3d5ffd5b505050506040513d601f19601f8201168201806040525081019061046e919061120f565b61048b57604051633a23d82560e01b815260040160405180910390fd5b60405183815233907f884edad9ce6fa2440d8a54cc123490eb96d2768479d49ff9c7366125a9424364906020015b60405180910390a2505060015f5550565b5f60025f54036104ed5760405163558a1e0360e11b815260040160405180910390fd5b60025f55600182101561051357604051631f2a200560e01b815260040160405180910390fd5b61051c33610fb0565b335f908152600160208190526040909120808201549091811015610553576040516308d1fde360e11b815260040160405180910390fd5b8084116105605783610562565b805b925061056e83826111fc565b60018301554260028301556040516323b872dd60e01b8152336004820152306024820152604481018490527f00000000000000000000000000000000000000000000000000000000000000006001600160a01b0316906323b872dd906064016020604051808303815f875af11580156105e9573d5f803e3d5ffd5b505050506040513d601f19601f8201168201806040525081019061060d919061120f565b61062a576040516308d1fde360e11b815260040160405180910390fd5b60405183815233907f5c16de4f8b59bd9caf0f49a545f25819a895ed223294290b408242e72a5942319060200160405180910390a2505060015f55919050565b6001600160a01b0381165f9081526001602052604081205461068b906110c1565b92915050565b6001600160a01b0381165f908152600160208181526040808420815160608101835281548082529482015493810193909352600201549082015290919081906106d985610ed6565b92506106e8815f015184611004565b93959294505050565b6001600160a01b0381165f90815260016020818152604080842081516060810183528154808252948201549381019390935260020154908201529061073e9061073985610ed6565b611004565b9392505050565b60025f54036107675760405163558a1e0360e11b815260040160405180910390fd5b60025f55600181101561078d57604051631f2a200560e01b815260040160405180910390fd5b61079633610fb0565b335f90815260016020526040812080548392906107b490849061122e565b90915550506040516323b872dd60e01b8152336004820152306024820152604481018290527f00000000000000000000000000000000000000000000000000000000000000006001600160a01b0316906323b872dd906064016020604051808303815f875af1158015610829573d5f803e3d5ffd5b505050506040513d601f19601f8201168201806040525081019061084d919061120f565b61086a57604051633a23d82560e01b815260040160405180910390fd5b60405181815233907fe1fffcc4923d04b559f4d29a8bfc6cda04eb5b0d3c460751c2402c5c5cc9109c9060200160405180910390a25060015f55565b5f8060025f54036108ca5760405163558a1e0360e11b815260040160405180910390fd5b60025f5560018310156108f057604051631f2a200560e01b815260040160405180910390fd5b6108f984610fb0565b6001600160a01b0384165f9081526001602081905260409091208082015490911115610938576040516308d1fde360e11b815260040160405180910390fd5b670de0b6b3a7640000610952825f01548360010154611004565b1061097057604051630879983f60e21b815260040160405180910390fd5b5f7f00000000000000000000000000000000000000000000000000000000000000006001600160a01b03166398d5fdca6040518163ffffffff1660e01b8152600401602060405180830381865afa1580156109cd573d5f803e3d5ffd5b505050506040513d601f19601f820116820180604052508101906109f19190611241565b90505f610a006005606461122e565b610a1290670de0b6b3a7640000611258565b8354610a1f908490611258565b610a2a906064611258565b610a34919061126f565b905082600101548611610a475785610a4d565b82600101545b945080851115610a5b578094505b6001851015610a7d57604051631f2a200560e01b815260040160405180910390fd5b610a88826064611258565b610a946005606461122e565b610aa6670de0b6b3a764000088611258565b610ab09190611258565b610aba919061126f565b935084836001015f828254610acf91906111fc565b90915550508254849084905f90610ae79084906111fc565b90915550504260028401556040516323b872dd60e01b8152336004820152306024820152604481018690527f00000000000000000000000000000000000000000000000000000000000000006001600160a01b0316906323b872dd906064016020604051808303815f875af1158015610b62573d5f803e3d5ffd5b505050506040513d601f19601f82011682018060405250810190610b86919061120f565b610ba3576040516308d1fde360e11b815260040160405180910390fd5b60405163a9059cbb60e01b8152336004820152602481018590527f00000000000000000000000000000000000000000000000000000000000000006001600160a01b03169063a9059cbb906044016020604051808303815f875af1158015610c0d573d5f803e3d5ffd5b505050506040513d601f19601f82011682018060405250810190610c31919061120f565b610c4e57604051633a23d82560e01b815260040160405180910390fd5b60408051868152602081018690526001600160a01b0389169133917ff3fa0eaee8f258c23b013654df25d1527f98a5c7ccd5e951dd77caca400ef972910160405180910390a3505060015f555090939092509050565b60025f5403610cc65760405163558a1e0360e11b815260040160405180910390fd5b60025f556001811015610cec57604051631f2a200560e01b815260040160405180910390fd5b610cf533610fb0565b335f908152600160208190526040822090810154909190610d1790849061122e565b9050610d25825f01546110c1565b811115610d455760405163f1c0aa3360e01b815260040160405180910390fd5b6040516370a0823160e01b815230600482015283907f00000000000000000000000000000000000000000000000000000000000000006001600160a01b0316906370a0823190602401602060405180830381865afa158015610da9573d5f803e3d5ffd5b505050506040513d601f19601f82011682018060405250810190610dcd9190611241565b1015610dec57604051636bb2792960e01b815260040160405180910390fd5b6001820181905542600283015560405163a9059cbb60e01b8152336004820152602481018490527f00000000000000000000000000000000000000000000000000000000000000006001600160a01b03169063a9059cbb906044016020604051808303815f875af1158015610e63573d5f803e3d5ffd5b505050506040513d601f19601f82011682018060405250810190610e87919061120f565b610ea457604051636bb2792960e01b815260040160405180910390fd5b60405183815233907fcbc04eca7e9da35cb1393a6135a199ca52e450d5e9251cbd99f7847d33a36750906020016104b9565b6001600160a01b0381165f9081526001602081815260408084208151606081018352815481528185015493810184905260029091015491810191909152911180610f24575060018160400151105b15610f33576020015192915050565b5f816040015142610f4491906111fc565b90505f670de0b6b3a7640000827f00000000000000000000000000000000000000000000000000000000000000008560200151610f819190611258565b610f8b9190611258565b610f95919061126f565b9050808360200151610fa7919061122e565b95945050505050565b6001600160a01b0381165f908152600160208190526040909120600281015490911115610fe1574260029091015550565b600181015415610ffa57610ff482610ed6565b60018201555b4260029091015550565b5f600182101561101657505f1961068b565b611021826064611258565b604b7f00000000000000000000000000000000000000000000000000000000000000006001600160a01b03166398d5fdca6040518163ffffffff1660e01b8152600401602060405180830381865afa15801561107f573d5f803e3d5ffd5b505050506040513d601f19601f820116820180604052508101906110a39190611241565b6110ad9086611258565b6110b79190611258565b61073e919061126f565b5f6110d5670de0b6b3a76400006064611258565b604b7f00000000000000000000000000000000000000000000000000000000000000006001600160a01b03166398d5fdca6040518163ffffffff1660e01b8152600401602060405180830381865afa158015611133573d5f803e3d5ffd5b505050506040513d601f19601f820116820180604052508101906111579190611241565b6111619085611258565b61116b9190611258565b61068b919061126f565b5f60208284031215611185575f80fd5b5035919050565b80356001600160a01b03811681146111a2575f80fd5b919050565b5f602082840312156111b7575f80fd5b61073e8261118c565b5f80604083850312156111d1575f80fd5b6111da8361118c565b946020939093013593505050565b634e487b7160e01b5f52601160045260245ffd5b8181038181111561068b5761068b6111e8565b5f6020828403121561121f575f80fd5b8151801515811461073e575f80fd5b8082018082111561068b5761068b6111e8565b5f60208284031215611251575f80fd5b5051919050565b808202811582820484141761068b5761068b6111e8565b5f8261128957634e487b7160e01b5f52601260045260245ffd5b50049056fea2646970667358221220dd38c2089b108ab1bec690b13c85f0c5ea481f91279ac8a2109f8027827e08b464736f6c63430008180033","linkReferences":{}},"methodIdentifiers":{"LIQUIDATION_BONUS()":"3574d4c4","LIQUIDATION_THRESHOLD()":"90a8ae9b","MAX_LTV()":"81bf8d3d","PRECISION()":"aaf5eb68","borrow(uint256)":"c5ebeaec","borrowRatePerSecond()":"52609750","collateralToken()":"b2016bd4","debtOf(address)":"d283e75f","debtToken()":"f8d89898","deposit(uint256)":"b6b55f25","getUserPosition(address)":"5b7c2dad","healthFactor(address)":"6ad9f9df","liquidate(address,uint256)":"bcbaf487","maxBorrowable(address)":"53696eb8","oracle()":"7dc0d1d0","positions(address)":"55f57510","repay(uint256)":"371fd8e6","withdraw(uint256)":"2e1a7d4d"},"id":2}