{"abi":[{"type":"constructor","inputs":[{"name":"collateralToken_","type":"address","internalType":"address"},{"name":"debtToken_","type":"address","internalType":"address"},{"name":"oracle_","type":"address","internalType":"address"},{"name":"borrowRatePerSecond_","type":"uint256","internalType":"uint256"}],"stateMutability":"nonpayable"},{"type":"function","name":"LIQUIDATION_BONUS","inputs":[],"outputs":[{"name":"","type":"uint256","internalType":"uint256"}],"stateMutability":"view"},{"type":"function","name":"LIQUIDATION_THRESHOLD","inputs":[],"outputs":[{"name":"","type":"uint256","internalType":"uint256"}],"stateMutability":"view"},{"type":"function","name":"MAX_LTV","inputs":[],"outputs":[{"name":"","type":"uint256","internalType":"uint256"}],"stateMutability":"view"},{"type":"function","name":"PRECISION","inputs":[],"outputs":[{"name":"","type":"uint256","internalType":"uint256"}],"stateMutability":"view"},{"type":"function","name":"borrow","inputs":[{"name":"amount","type":"uint256","internalType":"uint256"}],"outputs":[],"stateMutability":"nonpayable"},{"type":"function","name":"borrowRatePerSecond","inputs":[],"outputs":[{"name":"","type":"uint256","internalType":"uint256"}],"stateMutability":"view"},{"type":"function","name":"collateralToken","inputs":[],"outputs":[{"name":"","type":"address","internalType":"contract IERC20"}],"stateMutability":"view"},{"type":"function","name":"debtOf","inputs":[{"name":"user","type":"address","internalType":"address"}],"outputs":[{"name":"","type":"uint256","internalType":"uint256"}],"stateMutability":"view"},{"type":"function","name":"debtToken","inputs":[],"outputs":[{"name":"","type":"address","internalType":"contract IERC20"}],"stateMutability":"view"},{"type":"function","name":"deposit","inputs":[{"name":"amount","type":"uint256","internalType":"uint256"}],"outputs":[],"stateMutability":"nonpayable"},{"type":"function","name":"getUserPosition","inputs":[{"name":"user","type":"address","internalType":"address"}],"outputs":[{"name":"deposited","type":"uint256","internalType":"uint256"},{"name":"borrowed","type":"uint256","internalType":"uint256"},{"name":"hf","type":"uint256","internalType":"uint256"}],"stateMutability":"view"},{"type":"function","name":"healthFactor","inputs":[{"name":"user","type":"address","internalType":"address"}],"outputs":[{"name":"","type":"uint256","internalType":"uint256"}],"stateMutability":"view"},{"type":"function","name":"liquidate","inputs":[{"name":"user","type":"address","internalType":"address"},{"name":"repayAmount","type":"uint256","internalType":"uint256"}],"outputs":[{"name":"repaid","type":"uint256","internalType":"uint256"},{"name":"collateralSeized","type":"uint256","internalType":"uint256"}],"stateMutability":"nonpayable"},{"type":"function","name":"maxBorrowable","inputs":[{"name":"user","type":"address","internalType":"address"}],"outputs":[{"name":"","type":"uint256","internalType":"uint256"}],"stateMutability":"view"},{"type":"function","name":"oracle","inputs":[],"outputs":[{"name":"","type":"address","internalType":"contract IPriceOracle"}],"stateMutability":"view"},{"type":"function","name":"positions","inputs":[{"name":"","type":"address","internalType":"address"}],"outputs":[{"name":"collateral","type":"uint256","internalType":"uint256"},{"name":"debt","type":"uint256","internalType":"uint256"},{"name":"lastAccrued","type":"uint256","internalType":"uint256"}],"stateMutability":"view"},{"type":"function","name":"repay","inputs":[{"name":"amount","type":"uint256","internalType":"uint256"}],"outputs":[{"name":"paid","type":"uint256","internalType":"uint256"}],"stateMutability":"nonpayable"},{"type":"function","name":"withdraw","inputs":[{"name":"amount","type":"uint256","internalType":"uint256"}],"outputs":[],"stateMutability":"nonpayable"},{"type":"event","name":"Borrow","inputs":[{"name":"user","type":"address","indexed":true,"internalType":"address"},{"name":"amount","type":"uint256","indexed":false,"internalType":"uint256"}],"anonymous":false},{"type":"event","name":"Deposit","inputs":[{"name":"user","type":"address","indexed":true,"internalType":"address"},{"name":"amount","type":"uint256","indexed":false,"internalType":"uint256"}],"anonymous":false},{"type":"event","name":"Liquidate","inputs":[{"name":"liquidator","type":"address","indexed":true,"internalType":"address"},{"name":"user","type":"address","indexed":true,"internalType":"address"},{"name":"repaid","type":"uint256","indexed":false,"internalType":"uint256"},{"name":"collateralSeized","type":"uint256","indexed":false,"internalType":"uint256"}],"anonymous":false},{"type":"event","name":"Repay","inputs":[{"name":"user","type":"address","indexed":true,"internalType":"address"},{"name":"amount","type":"uint256","indexed":false,"internalType":"uint256"}],"anonymous":false},{"type":"event","name":"Withdraw","inputs":[{"name":"user","type":"address","indexed":true,"internalType":"address"},{"name":"amount","type":"uint256","indexed":false,"internalType":"uint256"}],"anonymous":false},{"type":"error","name":"ExceedsMaxLtv","inputs":[]},{"type":"error","name":"HealthFactorTooLow","inputs":[]},{"type":"error","name":"InsufficientCollateral","inputs":[]},{"type":"error","name":"InsufficientPoolLiquidity","inputs":[]},{"type":"error","name":"NoDebt","inputs":[]},{"type":"error","name":"PositionHealthy","inputs":[]},{"type":"error","name":"ZeroAmount","inputs":[]}],"bytecode":{"object":"0x610100604052348015610010575f80fd5b5060405161134738038061134783398101604081905261002f9161006c565b6001600160a01b0393841660805291831660a05290911660c05260e0526100b4565b80516001600160a01b0381168114610067575f80fd5b919050565b5f805f806080858703121561007f575f80fd5b61008885610051565b935061009660208601610051565b92506100a460408601610051565b6060959095015193969295505050565b60805160a05160c05160e0516112136101345f395f818161015d0152610e7801525f8181610206015281816108cc01528181610f41015261101901525f81816102e40152818161054701528181610a6b01528181610c840152610d3d01525f818161025c015281816103d6015281816107630152610b1601526112135ff3fe608060405234801561000f575f80fd5b5060043610610111575f3560e01c806381bf8d3d1161009e578063b6b55f251161006e578063b6b55f251461027e578063bcbaf48714610291578063c5ebeaec146102b9578063d283e75f146102cc578063f8d89898146102df575f80fd5b806381bf8d3d1461024057806390a8ae9b14610240578063aaf5eb6814610248578063b2016bd414610257575f80fd5b806353696eb8116100e457806353696eb81461017f57806355f57510146101925780635b7c2dad146101db5780636ad9f9df146101ee5780637dc0d1d014610201575f80fd5b80632e1a7d4d146101155780633574d4c41461012a578063371fd8e6146101455780635260975014610158575b5f80fd5b6101286101233660046110c4565b610306565b005b610132600581565b6040519081526020015b60405180910390f35b6101326101533660046110c4565b6104a0565b6101327f000000000000000000000000000000000000000000000000000000000000000081565b61013261018d3660046110f6565b610612565b6101c06101a03660046110f6565b5f6020819052908152604090208054600182015460029092015490919083565b6040805193845260208401929092529082015260600161013c565b6101c06101e93660046110f6565b610639565b6101326101fc3660046110f6565b61069d565b6102287f000000000000000000000000000000000000000000000000000000000000000081565b6040516001600160a01b03909116815260200161013c565b610132604b81565b610132670de0b6b3a764000081565b6102287f000000000000000000000000000000000000000000000000000000000000000081565b61012861028c3660046110c4565b6106f5565b6102a461029f36600461110f565b61082a565b6040805192835260208301919091520161013c565b6101286102c73660046110c4565b610bf5565b6101326102da3660046110f6565b610dfe565b6102287f000000000000000000000000000000000000000000000000000000000000000081565b805f0361032657604051631f2a200560e01b815260040160405180910390fd5b61032f33610ed5565b335f908152602081905260409020805482111561035f57604051633a23d82560e01b815260040160405180910390fd5b80545f9061036e90849061114b565b905081600101545f141580156103995750670de0b6b3a7640000610396828460010154610f25565b11155b156103b75760405163317416e560e11b815260040160405180910390fd5b80825560405163a9059cbb60e01b8152336004820152602481018490527f00000000000000000000000000000000000000000000000000000000000000006001600160a01b03169063a9059cbb906044016020604051808303815f875af1158015610424573d5f803e3d5ffd5b505050506040513d601f19601f82011682018060405250810190610448919061115e565b61046557604051633a23d82560e01b815260040160405180910390fd5b60405183815233907f884edad9ce6fa2440d8a54cc123490eb96d2768479d49ff9c7366125a9424364906020015b60405180910390a2505050565b5f815f036104c157604051631f2a200560e01b815260040160405180910390fd5b6104ca33610ed5565b335f908152602081905260408120600181015490918190036104ff576040516308d1fde360e11b815260040160405180910390fd5b80841161050c578361050e565b805b925061051a838261114b565b60018301554260028301556040516323b872dd60e01b8152336004820152306024820152604481018490527f00000000000000000000000000000000000000000000000000000000000000006001600160a01b0316906323b872dd906064016020604051808303815f875af1158015610595573d5f803e3d5ffd5b505050506040513d601f19601f820116820180604052508101906105b9919061115e565b6105d6576040516308d1fde360e11b815260040160405180910390fd5b60405183815233907f5c16de4f8b59bd9caf0f49a545f25819a895ed223294290b408242e72a5942319060200160405180910390a25050919050565b6001600160a01b0381165f908152602081905260408120546106339061100c565b92915050565b6001600160a01b0381165f908152602081815260408083208151606081018352815480825260018301549482019490945260029091015491810191909152909190819061068585610dfe565b9250610694815f015184610f25565b93959294505050565b6001600160a01b0381165f908152602081815260408083208151606081018352815480825260018301549482019490945260029091015491810191909152906106ee906106e985610dfe565b610f25565b9392505050565b805f0361071557604051631f2a200560e01b815260040160405180910390fd5b61071e33610ed5565b335f908152602081905260408120805483929061073c90849061117d565b90915550506040516323b872dd60e01b8152336004820152306024820152604481018290527f00000000000000000000000000000000000000000000000000000000000000006001600160a01b0316906323b872dd906064016020604051808303815f875af11580156107b1573d5f803e3d5ffd5b505050506040513d601f19601f820116820180604052508101906107d5919061115e565b6107f257604051633a23d82560e01b815260040160405180910390fd5b60405181815233907fe1fffcc4923d04b559f4d29a8bfc6cda04eb5b0d3c460751c2402c5c5cc9109c9060200160405180910390a250565b5f80825f0361084c57604051631f2a200560e01b815260040160405180910390fd5b61085584610ed5565b6001600160a01b0384165f9081526020819052604081206001810154909103610891576040516308d1fde360e11b815260040160405180910390fd5b670de0b6b3a76400006108ab825f01548360010154610f25565b106108c957604051630879983f60e21b815260040160405180910390fd5b5f7f00000000000000000000000000000000000000000000000000000000000000006001600160a01b03166398d5fdca6040518163ffffffff1660e01b8152600401602060405180830381865afa158015610926573d5f803e3d5ffd5b505050506040513d601f19601f8201168201806040525081019061094a9190611190565b90505f6109596005606461117d565b61096b90670de0b6b3a76400006111a7565b83546109789084906111a7565b6109839060646111a7565b61098d91906111be565b9050826001015486116109a057856109a6565b82600101545b9450808511156109b4578094505b845f036109d457604051631f2a200560e01b815260040160405180910390fd5b6109df8260646111a7565b6109eb6005606461117d565b6109fd670de0b6b3a7640000886111a7565b610a0791906111a7565b610a1191906111be565b935084836001015f828254610a26919061114b565b90915550508254849084905f90610a3e90849061114b565b90915550504260028401556040516323b872dd60e01b8152336004820152306024820152604481018690527f00000000000000000000000000000000000000000000000000000000000000006001600160a01b0316906323b872dd906064016020604051808303815f875af1158015610ab9573d5f803e3d5ffd5b505050506040513d601f19601f82011682018060405250810190610add919061115e565b610afa576040516308d1fde360e11b815260040160405180910390fd5b60405163a9059cbb60e01b8152336004820152602481018590527f00000000000000000000000000000000000000000000000000000000000000006001600160a01b03169063a9059cbb906044016020604051808303815f875af1158015610b64573d5f803e3d5ffd5b505050506040513d601f19601f82011682018060405250810190610b88919061115e565b610ba557604051633a23d82560e01b815260040160405180910390fd5b60408051868152602081018690526001600160a01b0389169133917ff3fa0eaee8f258c23b013654df25d1527f98a5c7ccd5e951dd77caca400ef972910160405180910390a35050509250929050565b805f03610c1557604051631f2a200560e01b815260040160405180910390fd5b610c1e33610ed5565b335f9081526020819052604081206001810154909190610c3f90849061117d565b9050610c4d825f015461100c565b811115610c6d5760405163f1c0aa3360e01b815260040160405180910390fd5b6040516370a0823160e01b815230600482015283907f00000000000000000000000000000000000000000000000000000000000000006001600160a01b0316906370a0823190602401602060405180830381865afa158015610cd1573d5f803e3d5ffd5b505050506040513d601f19601f82011682018060405250810190610cf59190611190565b1015610d1457604051636bb2792960e01b815260040160405180910390fd5b6001820181905542600283015560405163a9059cbb60e01b8152336004820152602481018490527f00000000000000000000000000000000000000000000000000000000000000006001600160a01b03169063a9059cbb906044016020604051808303815f875af1158015610d8b573d5f803e3d5ffd5b505050506040513d601f19601f82011682018060405250810190610daf919061115e565b610dcc57604051636bb2792960e01b815260040160405180910390fd5b60405183815233907fcbc04eca7e9da35cb1393a6135a199ca52e450d5e9251cbd99f7847d33a3675090602001610493565b6001600160a01b0381165f90815260208181526040808320815160608101835281548152600182015493810184905260029091015491810191909152901580610e4957506040810151155b15610e58576020015192915050565b5f816040015142610e69919061114b565b90505f670de0b6b3a7640000827f00000000000000000000000000000000000000000000000000000000000000008560200151610ea691906111a7565b610eb091906111a7565b610eba91906111be565b9050808360200151610ecc919061117d565b95945050505050565b6001600160a01b0381165f9081526020819052604081206002810154909103610f02574260029091015550565b600181015415610f1b57610f1582610dfe565b60018201555b4260029091015550565b5f815f03610f3557505f19610633565b5f670de0b6b3a76400007f00000000000000000000000000000000000000000000000000000000000000006001600160a01b03166398d5fdca6040518163ffffffff1660e01b8152600401602060405180830381865afa158015610f9b573d5f803e3d5ffd5b505050506040513d601f19601f82011682018060405250810190610fbf9190611190565b610fc990866111a7565b610fd391906111be565b90505f6064610fe3604b846111a7565b610fed91906111be565b905083611002670de0b6b3a7640000836111a7565b610ecc91906111be565b5f80670de0b6b3a76400007f00000000000000000000000000000000000000000000000000000000000000006001600160a01b03166398d5fdca6040518163ffffffff1660e01b8152600401602060405180830381865afa158015611073573d5f803e3d5ffd5b505050506040513d601f19601f820116820180604052508101906110979190611190565b6110a190856111a7565b6110ab91906111be565b905060646110ba604b836111a7565b6106ee91906111be565b5f602082840312156110d4575f80fd5b5035919050565b80356001600160a01b03811681146110f1575f80fd5b919050565b5f60208284031215611106575f80fd5b6106ee826110db565b5f8060408385031215611120575f80fd5b611129836110db565b946020939093013593505050565b634e487b7160e01b5f52601160045260245ffd5b8181038181111561063357610633611137565b5f6020828403121561116e575f80fd5b815180151581146106ee575f80fd5b8082018082111561063357610633611137565b5f602082840312156111a0575f80fd5b5051919050565b808202811582820484141761063357610633611137565b5f826111d857634e487b7160e01b5f52601260045260245ffd5b50049056fea264697066735822122033c4d69c718d93b33cc275cb4b7e3b74e93380866a6d679a40b67bf6a082f4e764736f6c63430008180033","linkReferences":{}},"methodIdentifiers":{"LIQUIDATION_BONUS()":"3574d4c4","LIQUIDATION_THRESHOLD()":"90a8ae9b","MAX_LTV()":"81bf8d3d","PRECISION()":"aaf5eb68","borrow(uint256)":"c5ebeaec","borrowRatePerSecond()":"52609750","collateralToken()":"b2016bd4","debtOf(address)":"d283e75f","debtToken()":"f8d89898","deposit(uint256)":"b6b55f25","getUserPosition(address)":"5b7c2dad","healthFactor(address)":"6ad9f9df","liquidate(address,uint256)":"bcbaf487","maxBorrowable(address)":"53696eb8","oracle()":"7dc0d1d0","positions(address)":"55f57510","repay(uint256)":"371fd8e6","withdraw(uint256)":"2e1a7d4d"},"id":19}