{"src/AMM.sol":{"AMM":{"abi":[{"type":"constructor","inputs":[{"name":"token0_","type":"address","internalType":"address"},{"name":"token1_","type":"address","internalType":"address"},{"name":"lpName_","type":"string","internalType":"string"},{"name":"lpSymbol_","type":"string","internalType":"string"}],"stateMutability":"nonpayable"},{"type":"function","name":"addLiquidity","inputs":[{"name":"amount0Desired","type":"uint256","internalType":"uint256"},{"name":"amount1Desired","type":"uint256","internalType":"uint256"},{"name":"minLiquidity","type":"uint256","internalType":"uint256"}],"outputs":[{"name":"amount0","type":"uint256","internalType":"uint256"},{"name":"amount1","type":"uint256","internalType":"uint256"},{"name":"liquidity","type":"uint256","internalType":"uint256"}],"stateMutability":"nonpayable"},{"type":"function","name":"getAmountOut","inputs":[{"name":"amountIn","type":"uint256","internalType":"uint256"},{"name":"reserveIn","type":"uint256","internalType":"uint256"},{"name":"reserveOut","type":"uint256","internalType":"uint256"}],"outputs":[{"name":"","type":"uint256","internalType":"uint256"}],"stateMutability":"pure"},{"type":"function","name":"getReserves","inputs":[],"outputs":[{"name":"","type":"uint256","internalType":"uint256"},{"name":"","type":"uint256","internalType":"uint256"}],"stateMutability":"view"},{"type":"function","name":"lpToken","inputs":[],"outputs":[{"name":"","type":"address","internalType":"contract LPToken"}],"stateMutability":"view"},{"type":"function","name":"removeLiquidity","inputs":[{"name":"liquidity","type":"uint256","internalType":"uint256"},{"name":"minAmount0","type":"uint256","internalType":"uint256"},{"name":"minAmount1","type":"uint256","internalType":"uint256"}],"outputs":[{"name":"amount0","type":"uint256","internalType":"uint256"},{"name":"amount1","type":"uint256","internalType":"uint256"}],"stateMutability":"nonpayable"},{"type":"function","name":"reserve0","inputs":[],"outputs":[{"name":"","type":"uint256","internalType":"uint256"}],"stateMutability":"view"},{"type":"function","name":"reserve1","inputs":[],"outputs":[{"name":"","type":"uint256","internalType":"uint256"}],"stateMutability":"view"},{"type":"function","name":"swap","inputs":[{"name":"tokenIn","type":"address","internalType":"address"},{"name":"amountIn","type":"uint256","internalType":"uint256"},{"name":"minAmountOut","type":"uint256","internalType":"uint256"},{"name":"to","type":"address","internalType":"address"}],"outputs":[{"name":"amountOut","type":"uint256","internalType":"uint256"}],"stateMutability":"nonpayable"},{"type":"function","name":"token0","inputs":[],"outputs":[{"name":"","type":"address","internalType":"contract IERC20"}],"stateMutability":"view"},{"type":"function","name":"token1","inputs":[],"outputs":[{"name":"","type":"address","internalType":"contract IERC20"}],"stateMutability":"view"},{"type":"event","name":"LiquidityAdded","inputs":[{"name":"provider","type":"address","indexed":true,"internalType":"address"},{"name":"amount0","type":"uint256","indexed":false,"internalType":"uint256"},{"name":"amount1","type":"uint256","indexed":false,"internalType":"uint256"},{"name":"liquidity","type":"uint256","indexed":false,"internalType":"uint256"}],"anonymous":false},{"type":"event","name":"LiquidityRemoved","inputs":[{"name":"provider","type":"address","indexed":true,"internalType":"address"},{"name":"amount0","type":"uint256","indexed":false,"internalType":"uint256"},{"name":"amount1","type":"uint256","indexed":false,"internalType":"uint256"},{"name":"liquidity","type":"uint256","indexed":false,"internalType":"uint256"}],"anonymous":false},{"type":"event","name":"Swap","inputs":[{"name":"trader","type":"address","indexed":true,"internalType":"address"},{"name":"tokenIn","type":"address","indexed":true,"internalType":"address"},{"name":"amountIn","type":"uint256","indexed":false,"internalType":"uint256"},{"name":"tokenOut","type":"address","indexed":true,"internalType":"address"},{"name":"amountOut","type":"uint256","indexed":false,"internalType":"uint256"}],"anonymous":false},{"type":"error","name":"IdenticalTokens","inputs":[]},{"type":"error","name":"InsufficientLiquidityBurned","inputs":[]},{"type":"error","name":"InsufficientLiquidityMinted","inputs":[]},{"type":"error","name":"InsufficientOutputAmount","inputs":[]},{"type":"error","name":"InvalidToken","inputs":[]},{"type":"error","name":"Reentrancy","inputs":[]},{"type":"error","name":"ZeroAddress","inputs":[]},{"type":"error","name":"ZeroAmount","inputs":[]}],"userdoc":{},"devdoc":{},"evm":{"bytecode":{"object":"60e060405260015f5534801562000014575f80fd5b5060405162001ebc38038062001ebc8339810160408190526200003791620001fe565b6001600160a01b03841615806200005557506001600160a01b038316155b15620000745760405163d92e233d60e01b815260040160405180910390fd5b826001600160a01b0316846001600160a01b031603620000a757604051635c6d7b7360e01b815260040160405180910390fd5b6001600160a01b03808516608052831660a052604051829082903090620000ce906200010e565b620000dc93929190620002b6565b604051809103905ff080158015620000f6573d5f803e3d5ffd5b506001600160a01b031660c05250620002f792505050565b610ca2806200121a83390190565b80516001600160a01b038116811462000133575f80fd5b919050565b634e487b7160e01b5f52604160045260245ffd5b5f5b83811015620001685781810151838201526020016200014e565b50505f910152565b5f82601f83011262000180575f80fd5b81516001600160401b03808211156200019d576200019d62000138565b604051601f8301601f19908116603f01168101908282118183101715620001c857620001c862000138565b81604052838152866020858801011115620001e1575f80fd5b620001f48460208301602089016200014c565b9695505050505050565b5f805f806080858703121562000212575f80fd5b6200021d856200011c565b93506200022d602086016200011c565b60408601519093506001600160401b03808211156200024a575f80fd5b620002588883890162000170565b935060608701519150808211156200026e575f80fd5b506200027d8782880162000170565b91505092959194509250565b5f8151808452620002a28160208601602086016200014c565b601f01601f19169290920160200192915050565b606081525f620002ca606083018662000289565b8281036020840152620002de818662000289565b91505060018060a01b0383166040830152949350505050565b60805160a05160c051610e74620003a65f395f8181610165015281816102a90152818161047c01528181610584015261069701525f818161019f01528181610439015281816107260152818161083a01528181610897015281816108c90152818161090a015281816109e60152610c0f01525f818160e60152818161040d015281816106fb01528181610819015281816108740152818161092d015281816109c00152610b860152610e745ff3fe608060405234801561000f575f80fd5b506004361061009b575f3560e01c80635a76f25e116100635780635a76f25e146101575780635fcbd28514610160578063857620e114610187578063d21220a71461019a578063f3e6ea8a146101c1575f80fd5b8063054d50d41461009f5780630902f1ac146100c55780630dfe1681146100e1578063422f104314610120578063443cb4bc1461014e575b5f80fd5b6100b26100ad366004610d17565b6101d4565b6040519081526020015b60405180910390f35b6001546002545b604080519283526020830191909152016100bc565b6101087f000000000000000000000000000000000000000000000000000000000000000081565b6040516001600160a01b0390911681526020016100bc565b61013361012e366004610d17565b610250565b604080519384526020840192909252908201526060016100bc565b6100b260015481565b6100b260025481565b6101087f000000000000000000000000000000000000000000000000000000000000000081565b6100cc610195366004610d17565b610537565b6101087f000000000000000000000000000000000000000000000000000000000000000081565b6100b26101cf366004610d5b565b6107a6565b5f60018410806101e45750600183105b806101ef5750600182105b1561020d57604051631f2a200560e01b815260040160405180910390fd5b5f61021a856103e5610db2565b905080610229856103e8610db2565b6102339190610dcf565b61023d8483610db2565b6102479190610de2565b95945050505050565b5f805f60025f54036102755760405163558a1e0360e11b815260040160405180910390fd5b60025f5560018610806102885750600185105b156102a657604051631f2a200560e01b815260040160405180910390fd5b5f7f00000000000000000000000000000000000000000000000000000000000000006001600160a01b03166318160ddd6040518163ffffffff1660e01b8152600401602060405180830381865afa158015610303573d5f803e3d5ffd5b505050506040513d601f19601f820116820180604052508101906103279190610e01565b9050805f0361034f578693508592506103486103438486610db2565b610a62565b91506103dc565b5f600154600254896103619190610db2565b61036b9190610de2565b905086811161039a5787945080935060015482896103899190610db2565b6103939190610de2565b92506103da565b5f600254600154896103ac9190610db2565b6103b69190610de2565b6002549096508895508691506103cc8487610db2565b6103d69190610de2565b9350505b505b60018210806103ea57508482105b1561040857604051633489be7560e21b815260040160405180910390fd5b6104347f0000000000000000000000000000000000000000000000000000000000000000333087610ad6565b6104607f0000000000000000000000000000000000000000000000000000000000000000333086610ad6565b6040516340c10f1960e01b8152336004820152602481018390527f00000000000000000000000000000000000000000000000000000000000000006001600160a01b0316906340c10f19906044015f604051808303815f87803b1580156104c5575f80fd5b505af11580156104d7573d5f803e3d5ffd5b505050506104e3610b71565b604080518581526020810185905290810183905233907f64b83944e79c3ce8d4c297411de637c3e102d064677aac0c163976ebdcd6f50e9060600160405180910390a25060015f8190555093509350939050565b5f8060025f540361055b5760405163558a1e0360e11b815260040160405180910390fd5b60025f55600185101561058157604051631f2a200560e01b815260040160405180910390fd5b5f7f00000000000000000000000000000000000000000000000000000000000000006001600160a01b03166318160ddd6040518163ffffffff1660e01b8152600401602060405180830381865afa1580156105de573d5f803e3d5ffd5b505050506040513d601f19601f820116820180604052508101906106029190610e01565b905080600154876106139190610db2565b61061d9190610de2565b9250806002548761062e9190610db2565b6106389190610de2565b915060018310806106495750600182105b8061065357508483105b8061065d57508382105b1561067b5760405163749383ad60e01b815260040160405180910390fd5b604051632770a7eb60e21b8152336004820152602481018790527f00000000000000000000000000000000000000000000000000000000000000006001600160a01b031690639dc29fac906044015f604051808303815f87803b1580156106e0575f80fd5b505af11580156106f2573d5f803e3d5ffd5b505050506107217f00000000000000000000000000000000000000000000000000000000000000003385610c85565b61074c7f00000000000000000000000000000000000000000000000000000000000000003384610c85565b610754610b71565b604080518481526020810184905290810187905233907f1dc8bb69df2b8e91fbdcbfcf93d951b3f0000f085a95fe3f7946d6161439245d9060600160405180910390a25060015f559094909350915050565b5f60025f54036107c95760405163558a1e0360e11b815260040160405180910390fd5b60025f5560018410156107ef57604051631f2a200560e01b815260040160405180910390fd5b6001600160a01b0382166108165760405163d92e233d60e01b815260040160405180910390fd5b5f7f00000000000000000000000000000000000000000000000000000000000000007f000000000000000000000000000000000000000000000000000000000000000082806001600160a01b03808516908b16036108c757600194507f000000000000000000000000000000000000000000000000000000000000000093507f000000000000000000000000000000000000000000000000000000000000000092506001549150600254905061096c565b7f00000000000000000000000000000000000000000000000000000000000000006001600160a01b03168a6001600160a01b0316036109535750506002546001547f000000000000000000000000000000000000000000000000000000000000000093507f0000000000000000000000000000000000000000000000000000000000000000925061096c565b60405163c1ab6dc160e01b815260040160405180910390fd5b6109778983836101d4565b95508786101561099a576040516342301c2360e01b815260040160405180910390fd5b6109a68433308c610ad6565b6109b1838888610c85565b6109b9610b71565b846109e4577f0000000000000000000000000000000000000000000000000000000000000000610a06565b7f00000000000000000000000000000000000000000000000000000000000000005b604080518b8152602081018990526001600160a01b03928316928d169133917f5380cf97d8f645d3c4896da60c053458dca03a3a31cec642ac80e1ddf0d8d02a910160405180910390a4505060015f5550919695505050505050565b5f815f03610a7157505f919050565b60038211610a8157506001919050565b50805f610a8f600283610de2565b610a9a906001610dcf565b90505b81811015610ad057905080600281610ab58186610de2565b610abf9190610dcf565b610ac99190610de2565b9050610a9d565b50919050565b6040516323b872dd60e01b81526001600160a01b0384811660048301528381166024830152604482018390528516906323b872dd906064016020604051808303815f875af1158015610b2a573d5f803e3d5ffd5b505050506040513d601f19601f82011682018060405250810190610b4e9190610e18565b610b6b5760405163c1ab6dc160e01b815260040160405180910390fd5b50505050565b6040516370a0823160e01b81523060048201527f00000000000000000000000000000000000000000000000000000000000000006001600160a01b0316906370a0823190602401602060405180830381865afa158015610bd3573d5f803e3d5ffd5b505050506040513d601f19601f82011682018060405250810190610bf79190610e01565b6001556040516370a0823160e01b81523060048201527f00000000000000000000000000000000000000000000000000000000000000006001600160a01b0316906370a0823190602401602060405180830381865afa158015610c5c573d5f803e3d5ffd5b505050506040513d601f19601f82011682018060405250810190610c809190610e01565b600255565b60405163a9059cbb60e01b81526001600160a01b0383811660048301526024820183905284169063a9059cbb906044016020604051808303815f875af1158015610cd1573d5f803e3d5ffd5b505050506040513d601f19601f82011682018060405250810190610cf59190610e18565b610d125760405163c1ab6dc160e01b815260040160405180910390fd5b505050565b5f805f60608486031215610d29575f80fd5b505081359360208301359350604090920135919050565b80356001600160a01b0381168114610d56575f80fd5b919050565b5f805f8060808587031215610d6e575f80fd5b610d7785610d40565b93506020850135925060408501359150610d9360608601610d40565b905092959194509250565b634e487b7160e01b5f52601160045260245ffd5b8082028115828204841417610dc957610dc9610d9e565b92915050565b80820180821115610dc957610dc9610d9e565b5f82610dfc57634e487b7160e01b5f52601260045260245ffd5b500490565b5f60208284031215610e11575f80fd5b5051919050565b5f60208284031215610e28575f80fd5b81518015158114610e37575f80fd5b939250505056fea2646970667358221220bd16eeb18707534462acde5b1cc0cae165319b83a9e8a017b52a57cb79f60c7664736f6c6343000818003360c060405234801562000010575f80fd5b5060405162000ca238038062000ca283398101604081905262000033916200015a565b828260125f6200004484826200026b565b5060016200005383826200026b565b5060ff1660805250506001600160a01b038116620000845760405163d92e233d60e01b815260040160405180910390fd5b6001600160a01b031660a05250620003379050565b634e487b7160e01b5f52604160045260245ffd5b5f82601f830112620000bd575f80fd5b81516001600160401b0380821115620000da57620000da62000099565b604051601f8301601f19908116603f0116810190828211818310171562000105576200010562000099565b816040528381526020925086602085880101111562000122575f80fd5b5f91505b8382101562000145578582018301518183018401529082019062000126565b5f602085830101528094505050505092915050565b5f805f606084860312156200016d575f80fd5b83516001600160401b038082111562000184575f80fd5b6200019287838801620000ad565b94506020860151915080821115620001a8575f80fd5b50620001b786828701620000ad565b604086015190935090506001600160a01b0381168114620001d6575f80fd5b809150509250925092565b600181811c90821680620001f657607f821691505b6020821081036200021557634e487b7160e01b5f52602260045260245ffd5b50919050565b601f8211156200026657805f5260205f20601f840160051c81016020851015620002425750805b601f840160051c820191505b8181101562000263575f81556001016200024e565b50505b505050565b81516001600160401b0381111562000287576200028762000099565b6200029f81620002988454620001e1565b846200021b565b602080601f831160018114620002d5575f8415620002bd5750858301515b5f19600386901b1c1916600185901b1785556200032f565b5f85815260208120601f198616915b828110156200030557888601518255948401946001909101908401620002e4565b50858210156200032357878501515f19600388901b60f8161c191681555b505060018460011b0185555b505050505050565b60805160a05161093b620003675f395f81816101250152818161040c015261047001525f610164015261093b5ff3fe608060405234801561000f575f80fd5b50600436106100b1575f3560e01c806340c10f191161006e57806340c10f191461019857806370a08231146101ad57806395d89b41146101cc5780639dc29fac146101d4578063a9059cbb146101e7578063dd62ed3e146101fa575f80fd5b806306fdde03146100b5578063095ea7b3146100d357806318160ddd146100f657806323b872dd1461010d5780632a94394514610120578063313ce5671461015f575b5f80fd5b6100bd610224565b6040516100ca919061077a565b60405180910390f35b6100e66100e13660046107e1565b6102af565b60405190151581526020016100ca565b6100ff60025481565b6040519081526020016100ca565b6100e661011b366004610809565b61033b565b6101477f000000000000000000000000000000000000000000000000000000000000000081565b6040516001600160a01b0390911681526020016100ca565b6101867f000000000000000000000000000000000000000000000000000000000000000081565b60405160ff90911681526020016100ca565b6101ab6101a63660046107e1565b610401565b005b6100ff6101bb366004610842565b60036020525f908152604090205481565b6100bd610458565b6101ab6101e23660046107e1565b610465565b6100e66101f53660046107e1565b6104b8565b6100ff610208366004610862565b600460209081525f928352604080842090915290825290205481565b5f805461023090610893565b80601f016020809104026020016040519081016040528092919081815260200182805461025c90610893565b80156102a75780601f1061027e576101008083540402835291602001916102a7565b820191905f5260205f20905b81548152906001019060200180831161028a57829003601f168201915b505050505081565b5f6001600160a01b0383166102d75760405163d92e233d60e01b815260040160405180910390fd5b335f8181526004602090815260408083206001600160a01b03881680855290835292819020869055518581529192917f8c5be1e5ebec7d5bd14f71427d1e84f3dd0314c0f7b2291e5b200ac8c7c3b925910160405180910390a35060015b92915050565b6001600160a01b0383165f9081526004602090815260408083203384529091528120545f1981146103eb5782811015610387576040516313be252b60e01b815260040160405180910390fd5b61039183826108df565b6001600160a01b0386165f81815260046020908152604080832033808552908352928190208590555193845290927f8c5be1e5ebec7d5bd14f71427d1e84f3dd0314c0f7b2291e5b200ac8c7c3b925910160405180910390a35b6103f68585856104cd565b506001949350505050565b336001600160a01b037f0000000000000000000000000000000000000000000000000000000000000000161461044a576040516306da2ed360e01b815260040160405180910390fd5b61045482826105ce565b5050565b6001805461023090610893565b336001600160a01b037f000000000000000000000000000000000000000000000000000000000000000016146104ae576040516306da2ed360e01b815260040160405180910390fd5b610454828261069b565b5f6104c43384846104cd565b50600192915050565b6001600160a01b03831615806104ea57506001600160a01b038216155b156105085760405163d92e233d60e01b815260040160405180910390fd5b805f0361052857604051631f2a200560e01b815260040160405180910390fd5b6001600160a01b0383165f908152600360205260409020548181101561056157604051631e9acf1760e31b815260040160405180910390fd5b6001600160a01b038085165f8181526003602052604080822086860390559286168082529083902080548601905591517fddf252ad1be2c89b69c2b068fc378daa952ba7f163c4a11628f55a4df523b3ef906105c09086815260200190565b60405180910390a350505050565b6001600160a01b0382166105f55760405163d92e233d60e01b815260040160405180910390fd5b805f0361061557604051631f2a200560e01b815260040160405180910390fd5b8060025f82825461062691906108f2565b90915550506001600160a01b0382165f90815260036020526040812080548392906106529084906108f2565b90915550506040518181526001600160a01b038316905f907fddf252ad1be2c89b69c2b068fc378daa952ba7f163c4a11628f55a4df523b3ef9060200160405180910390a35050565b6001600160a01b0382166106c25760405163d92e233d60e01b815260040160405180910390fd5b805f036106e257604051631f2a200560e01b815260040160405180910390fd5b6001600160a01b0382165f908152600360205260409020548181101561071b57604051631e9acf1760e31b815260040160405180910390fd5b6001600160a01b0383165f8181526003602090815260408083208686039055600280548790039055518581529192917fddf252ad1be2c89b69c2b068fc378daa952ba7f163c4a11628f55a4df523b3ef910160405180910390a3505050565b5f602080835283518060208501525f5b818110156107a65785810183015185820160400152820161078a565b505f604082860101526040601f19601f8301168501019250505092915050565b80356001600160a01b03811681146107dc575f80fd5b919050565b5f80604083850312156107f2575f80fd5b6107fb836107c6565b946020939093013593505050565b5f805f6060848603121561081b575f80fd5b610824846107c6565b9250610832602085016107c6565b9150604084013590509250925092565b5f60208284031215610852575f80fd5b61085b826107c6565b9392505050565b5f8060408385031215610873575f80fd5b61087c836107c6565b915061088a602084016107c6565b90509250929050565b600181811c908216806108a757607f821691505b6020821081036108c557634e487b7160e01b5f52602260045260245ffd5b50919050565b634e487b7160e01b5f52601160045260245ffd5b81810381811115610335576103356108cb565b80820180821115610335576103356108cb56fea26469706673582212202dfb165cc8270b8bd360ea5033896f91c3e069da82b9df106e258f814209d45664736f6c63430008180033","linkReferences":{}},"methodIdentifiers":{"addLiquidity(uint256,uint256,uint256)":"422f1043","getAmountOut(uint256,uint256,uint256)":"054d50d4","getReserves()":"0902f1ac","lpToken()":"5fcbd285","removeLiquidity(uint256,uint256,uint256)":"857620e1","reserve0()":"443cb4bc","reserve1()":"5a76f25e","swap(address,uint256,uint256,address)":"f3e6ea8a","token0()":"0dfe1681","token1()":"d21220a7"}}}}}