{"src/LPToken.sol":{"LPToken":{"abi":[{"type":"constructor","inputs":[{"name":"name_","type":"string","internalType":"string"},{"name":"symbol_","type":"string","internalType":"string"},{"name":"amm_","type":"address","internalType":"address"}],"stateMutability":"nonpayable"},{"type":"function","name":"allowance","inputs":[{"name":"","type":"address","internalType":"address"},{"name":"","type":"address","internalType":"address"}],"outputs":[{"name":"","type":"uint256","internalType":"uint256"}],"stateMutability":"view"},{"type":"function","name":"amm","inputs":[],"outputs":[{"name":"","type":"address","internalType":"address"}],"stateMutability":"view"},{"type":"function","name":"approve","inputs":[{"name":"spender","type":"address","internalType":"address"},{"name":"amount","type":"uint256","internalType":"uint256"}],"outputs":[{"name":"","type":"bool","internalType":"bool"}],"stateMutability":"nonpayable"},{"type":"function","name":"balanceOf","inputs":[{"name":"","type":"address","internalType":"address"}],"outputs":[{"name":"","type":"uint256","internalType":"uint256"}],"stateMutability":"view"},{"type":"function","name":"burn","inputs":[{"name":"from","type":"address","internalType":"address"},{"name":"amount","type":"uint256","internalType":"uint256"}],"outputs":[],"stateMutability":"nonpayable"},{"type":"function","name":"decimals","inputs":[],"outputs":[{"name":"","type":"uint8","internalType":"uint8"}],"stateMutability":"view"},{"type":"function","name":"mint","inputs":[{"name":"to","type":"address","internalType":"address"},{"name":"amount","type":"uint256","internalType":"uint256"}],"outputs":[],"stateMutability":"nonpayable"},{"type":"function","name":"name","inputs":[],"outputs":[{"name":"","type":"string","internalType":"string"}],"stateMutability":"view"},{"type":"function","name":"symbol","inputs":[],"outputs":[{"name":"","type":"string","internalType":"string"}],"stateMutability":"view"},{"type":"function","name":"totalSupply","inputs":[],"outputs":[{"name":"","type":"uint256","internalType":"uint256"}],"stateMutability":"view"},{"type":"function","name":"transfer","inputs":[{"name":"to","type":"address","internalType":"address"},{"name":"amount","type":"uint256","internalType":"uint256"}],"outputs":[{"name":"","type":"bool","internalType":"bool"}],"stateMutability":"nonpayable"},{"type":"function","name":"transferFrom","inputs":[{"name":"from","type":"address","internalType":"address"},{"name":"to","type":"address","internalType":"address"},{"name":"amount","type":"uint256","internalType":"uint256"}],"outputs":[{"name":"","type":"bool","internalType":"bool"}],"stateMutability":"nonpayable"},{"type":"event","name":"Approval","inputs":[{"name":"owner","type":"address","indexed":true,"internalType":"address"},{"name":"spender","type":"address","indexed":true,"internalType":"address"},{"name":"amount","type":"uint256","indexed":false,"internalType":"uint256"}],"anonymous":false},{"type":"event","name":"Transfer","inputs":[{"name":"from","type":"address","indexed":true,"internalType":"address"},{"name":"to","type":"address","indexed":true,"internalType":"address"},{"name":"amount","type":"uint256","indexed":false,"internalType":"uint256"}],"anonymous":false},{"type":"error","name":"InsufficientAllowance","inputs":[]},{"type":"error","name":"InsufficientBalance","inputs":[]},{"type":"error","name":"NotAMM","inputs":[]},{"type":"error","name":"ZeroAddress","inputs":[]},{"type":"error","name":"ZeroAmount","inputs":[]}],"userdoc":{},"devdoc":{},"evm":{"bytecode":{"object":"60c060405234801562000010575f80fd5b5060405162000ca238038062000ca283398101604081905262000033916200015a565b828260125f6200004484826200026b565b5060016200005383826200026b565b5060ff1660805250506001600160a01b038116620000845760405163d92e233d60e01b815260040160405180910390fd5b6001600160a01b031660a05250620003379050565b634e487b7160e01b5f52604160045260245ffd5b5f82601f830112620000bd575f80fd5b81516001600160401b0380821115620000da57620000da62000099565b604051601f8301601f19908116603f0116810190828211818310171562000105576200010562000099565b816040528381526020925086602085880101111562000122575f80fd5b5f91505b8382101562000145578582018301518183018401529082019062000126565b5f602085830101528094505050505092915050565b5f805f606084860312156200016d575f80fd5b83516001600160401b038082111562000184575f80fd5b6200019287838801620000ad565b94506020860151915080821115620001a8575f80fd5b50620001b786828701620000ad565b604086015190935090506001600160a01b0381168114620001d6575f80fd5b809150509250925092565b600181811c90821680620001f657607f821691505b6020821081036200021557634e487b7160e01b5f52602260045260245ffd5b50919050565b601f8211156200026657805f5260205f20601f840160051c81016020851015620002425750805b601f840160051c820191505b8181101562000263575f81556001016200024e565b50505b505050565b81516001600160401b0381111562000287576200028762000099565b6200029f81620002988454620001e1565b846200021b565b602080601f831160018114620002d5575f8415620002bd5750858301515b5f19600386901b1c1916600185901b1785556200032f565b5f85815260208120601f198616915b828110156200030557888601518255948401946001909101908401620002e4565b50858210156200032357878501515f19600388901b60f8161c191681555b505060018460011b0185555b505050505050565b60805160a05161093b620003675f395f81816101250152818161040c015261047001525f610164015261093b5ff3fe608060405234801561000f575f80fd5b50600436106100b1575f3560e01c806340c10f191161006e57806340c10f191461019857806370a08231146101ad57806395d89b41146101cc5780639dc29fac146101d4578063a9059cbb146101e7578063dd62ed3e146101fa575f80fd5b806306fdde03146100b5578063095ea7b3146100d357806318160ddd146100f657806323b872dd1461010d5780632a94394514610120578063313ce5671461015f575b5f80fd5b6100bd610224565b6040516100ca919061077a565b60405180910390f35b6100e66100e13660046107e1565b6102af565b60405190151581526020016100ca565b6100ff60025481565b6040519081526020016100ca565b6100e661011b366004610809565b61033b565b6101477f000000000000000000000000000000000000000000000000000000000000000081565b6040516001600160a01b0390911681526020016100ca565b6101867f000000000000000000000000000000000000000000000000000000000000000081565b60405160ff90911681526020016100ca565b6101ab6101a63660046107e1565b610401565b005b6100ff6101bb366004610842565b60036020525f908152604090205481565b6100bd610458565b6101ab6101e23660046107e1565b610465565b6100e66101f53660046107e1565b6104b8565b6100ff610208366004610862565b600460209081525f928352604080842090915290825290205481565b5f805461023090610893565b80601f016020809104026020016040519081016040528092919081815260200182805461025c90610893565b80156102a75780601f1061027e576101008083540402835291602001916102a7565b820191905f5260205f20905b81548152906001019060200180831161028a57829003601f168201915b505050505081565b5f6001600160a01b0383166102d75760405163d92e233d60e01b815260040160405180910390fd5b335f8181526004602090815260408083206001600160a01b03881680855290835292819020869055518581529192917f8c5be1e5ebec7d5bd14f71427d1e84f3dd0314c0f7b2291e5b200ac8c7c3b925910160405180910390a35060015b92915050565b6001600160a01b0383165f9081526004602090815260408083203384529091528120545f1981146103eb5782811015610387576040516313be252b60e01b815260040160405180910390fd5b61039183826108df565b6001600160a01b0386165f81815260046020908152604080832033808552908352928190208590555193845290927f8c5be1e5ebec7d5bd14f71427d1e84f3dd0314c0f7b2291e5b200ac8c7c3b925910160405180910390a35b6103f68585856104cd565b506001949350505050565b336001600160a01b037f0000000000000000000000000000000000000000000000000000000000000000161461044a576040516306da2ed360e01b815260040160405180910390fd5b61045482826105ce565b5050565b6001805461023090610893565b336001600160a01b037f000000000000000000000000000000000000000000000000000000000000000016146104ae576040516306da2ed360e01b815260040160405180910390fd5b610454828261069b565b5f6104c43384846104cd565b50600192915050565b6001600160a01b03831615806104ea57506001600160a01b038216155b156105085760405163d92e233d60e01b815260040160405180910390fd5b805f0361052857604051631f2a200560e01b815260040160405180910390fd5b6001600160a01b0383165f908152600360205260409020548181101561056157604051631e9acf1760e31b815260040160405180910390fd5b6001600160a01b038085165f8181526003602052604080822086860390559286168082529083902080548601905591517fddf252ad1be2c89b69c2b068fc378daa952ba7f163c4a11628f55a4df523b3ef906105c09086815260200190565b60405180910390a350505050565b6001600160a01b0382166105f55760405163d92e233d60e01b815260040160405180910390fd5b805f0361061557604051631f2a200560e01b815260040160405180910390fd5b8060025f82825461062691906108f2565b90915550506001600160a01b0382165f90815260036020526040812080548392906106529084906108f2565b90915550506040518181526001600160a01b038316905f907fddf252ad1be2c89b69c2b068fc378daa952ba7f163c4a11628f55a4df523b3ef9060200160405180910390a35050565b6001600160a01b0382166106c25760405163d92e233d60e01b815260040160405180910390fd5b805f036106e257604051631f2a200560e01b815260040160405180910390fd5b6001600160a01b0382165f908152600360205260409020548181101561071b57604051631e9acf1760e31b815260040160405180910390fd5b6001600160a01b0383165f8181526003602090815260408083208686039055600280548790039055518581529192917fddf252ad1be2c89b69c2b068fc378daa952ba7f163c4a11628f55a4df523b3ef910160405180910390a3505050565b5f602080835283518060208501525f5b818110156107a65785810183015185820160400152820161078a565b505f604082860101526040601f19601f8301168501019250505092915050565b80356001600160a01b03811681146107dc575f80fd5b919050565b5f80604083850312156107f2575f80fd5b6107fb836107c6565b946020939093013593505050565b5f805f6060848603121561081b575f80fd5b610824846107c6565b9250610832602085016107c6565b9150604084013590509250925092565b5f60208284031215610852575f80fd5b61085b826107c6565b9392505050565b5f8060408385031215610873575f80fd5b61087c836107c6565b915061088a602084016107c6565b90509250929050565b600181811c908216806108a757607f821691505b6020821081036108c557634e487b7160e01b5f52602260045260245ffd5b50919050565b634e487b7160e01b5f52601160045260245ffd5b81810381811115610335576103356108cb565b80820180821115610335576103356108cb56fea26469706673582212202dfb165cc8270b8bd360ea5033896f91c3e069da82b9df106e258f814209d45664736f6c63430008180033","linkReferences":{}},"methodIdentifiers":{"allowance(address,address)":"dd62ed3e","amm()":"2a943945","approve(address,uint256)":"095ea7b3","balanceOf(address)":"70a08231","burn(address,uint256)":"9dc29fac","decimals()":"313ce567","mint(address,uint256)":"40c10f19","name()":"06fdde03","symbol()":"95d89b41","totalSupply()":"18160ddd","transfer(address,uint256)":"a9059cbb","transferFrom(address,address,uint256)":"23b872dd"}}}}}