{"abi":[{"type":"constructor","inputs":[{"name":"token0_","type":"address","internalType":"address"},{"name":"token1_","type":"address","internalType":"address"},{"name":"lpName_","type":"string","internalType":"string"},{"name":"lpSymbol_","type":"string","internalType":"string"}],"stateMutability":"nonpayable"},{"type":"function","name":"addLiquidity","inputs":[{"name":"amount0Desired","type":"uint256","internalType":"uint256"},{"name":"amount1Desired","type":"uint256","internalType":"uint256"},{"name":"minLiquidity","type":"uint256","internalType":"uint256"}],"outputs":[{"name":"amount0","type":"uint256","internalType":"uint256"},{"name":"amount1","type":"uint256","internalType":"uint256"},{"name":"liquidity","type":"uint256","internalType":"uint256"}],"stateMutability":"nonpayable"},{"type":"function","name":"getAmountOut","inputs":[{"name":"amountIn","type":"uint256","internalType":"uint256"},{"name":"reserveIn","type":"uint256","internalType":"uint256"},{"name":"reserveOut","type":"uint256","internalType":"uint256"}],"outputs":[{"name":"","type":"uint256","internalType":"uint256"}],"stateMutability":"pure"},{"type":"function","name":"getReserves","inputs":[],"outputs":[{"name":"","type":"uint256","internalType":"uint256"},{"name":"","type":"uint256","internalType":"uint256"}],"stateMutability":"view"},{"type":"function","name":"lpToken","inputs":[],"outputs":[{"name":"","type":"address","internalType":"contract LPToken"}],"stateMutability":"view"},{"type":"function","name":"removeLiquidity","inputs":[{"name":"liquidity","type":"uint256","internalType":"uint256"},{"name":"minAmount0","type":"uint256","internalType":"uint256"},{"name":"minAmount1","type":"uint256","internalType":"uint256"}],"outputs":[{"name":"amount0","type":"uint256","internalType":"uint256"},{"name":"amount1","type":"uint256","internalType":"uint256"}],"stateMutability":"nonpayable"},{"type":"function","name":"reserve0","inputs":[],"outputs":[{"name":"","type":"uint256","internalType":"uint256"}],"stateMutability":"view"},{"type":"function","name":"reserve1","inputs":[],"outputs":[{"name":"","type":"uint256","internalType":"uint256"}],"stateMutability":"view"},{"type":"function","name":"swap","inputs":[{"name":"tokenIn","type":"address","internalType":"address"},{"name":"amountIn","type":"uint256","internalType":"uint256"},{"name":"minAmountOut","type":"uint256","internalType":"uint256"},{"name":"to","type":"address","internalType":"address"}],"outputs":[{"name":"amountOut","type":"uint256","internalType":"uint256"}],"stateMutability":"nonpayable"},{"type":"function","name":"token0","inputs":[],"outputs":[{"name":"","type":"address","internalType":"contract IERC20"}],"stateMutability":"view"},{"type":"function","name":"token1","inputs":[],"outputs":[{"name":"","type":"address","internalType":"contract IERC20"}],"stateMutability":"view"},{"type":"event","name":"LiquidityAdded","inputs":[{"name":"provider","type":"address","indexed":true,"internalType":"address"},{"name":"amount0","type":"uint256","indexed":false,"internalType":"uint256"},{"name":"amount1","type":"uint256","indexed":false,"internalType":"uint256"},{"name":"liquidity","type":"uint256","indexed":false,"internalType":"uint256"}],"anonymous":false},{"type":"event","name":"LiquidityRemoved","inputs":[{"name":"provider","type":"address","indexed":true,"internalType":"address"},{"name":"amount0","type":"uint256","indexed":false,"internalType":"uint256"},{"name":"amount1","type":"uint256","indexed":false,"internalType":"uint256"},{"name":"liquidity","type":"uint256","indexed":false,"internalType":"uint256"}],"anonymous":false},{"type":"event","name":"Swap","inputs":[{"name":"trader","type":"address","indexed":true,"internalType":"address"},{"name":"tokenIn","type":"address","indexed":true,"internalType":"address"},{"name":"amountIn","type":"uint256","indexed":false,"internalType":"uint256"},{"name":"tokenOut","type":"address","indexed":true,"internalType":"address"},{"name":"amountOut","type":"uint256","indexed":false,"internalType":"uint256"}],"anonymous":false},{"type":"error","name":"IdenticalTokens","inputs":[]},{"type":"error","name":"InsufficientLiquidityBurned","inputs":[]},{"type":"error","name":"InsufficientLiquidityMinted","inputs":[]},{"type":"error","name":"InsufficientOutputAmount","inputs":[]},{"type":"error","name":"InvalidToken","inputs":[]},{"type":"error","name":"ZeroAddress","inputs":[]},{"type":"error","name":"ZeroAmount","inputs":[]}],"bytecode":{"object":"0x60e060405234801562000010575f80fd5b5060405162001ddf38038062001ddf8339810160408190526200003391620001fa565b6001600160a01b03841615806200005157506001600160a01b038316155b15620000705760405163d92e233d60e01b815260040160405180910390fd5b826001600160a01b0316846001600160a01b031603620000a357604051635c6d7b7360e01b815260040160405180910390fd5b6001600160a01b03808516608052831660a052604051829082903090620000ca906200010a565b620000d893929190620002b2565b604051809103905ff080158015620000f2573d5f803e3d5ffd5b506001600160a01b031660c05250620002f392505050565b610c7a806200116583390190565b80516001600160a01b03811681146200012f575f80fd5b919050565b634e487b7160e01b5f52604160045260245ffd5b5f5b83811015620001645781810151838201526020016200014a565b50505f910152565b5f82601f8301126200017c575f80fd5b81516001600160401b038082111562000199576200019962000134565b604051601f8301601f19908116603f01168101908282118183101715620001c457620001c462000134565b81604052838152866020858801011115620001dd575f80fd5b620001f084602083016020890162000148565b9695505050505050565b5f805f80608085870312156200020e575f80fd5b620002198562000118565b9350620002296020860162000118565b60408601519093506001600160401b038082111562000246575f80fd5b62000254888389016200016c565b935060608701519150808211156200026a575f80fd5b5062000279878288016200016c565b91505092959194509250565b5f81518084526200029e81602086016020860162000148565b601f01601f19169290920160200192915050565b606081525f620002c6606083018662000285565b8281036020840152620002da818662000285565b91505060018060a01b0383166040830152949350505050565b60805160a05160c051610dca6200039b5f395f818161016301528181610277015281816104450152818161051e015261062c01525f818161019d01528181610402015281816106bb015281816107eb01528181610813015281816108530152818161092f0152610b6b01525f818160e5015281816103d60152818161069001528181610784015281816107c801528181610876015281816109090152610ae30152610dca5ff3fe608060405234801561000f575f80fd5b506004361061009b575f3560e01c80635a76f25e116100635780635a76f25e146101555780635fcbd2851461015e578063857620e114610185578063d21220a714610198578063f3e6ea8a146101bf575f80fd5b8063054d50d41461009f5780630902f1ac146100c55780630dfe1681146100e0578063422f10431461011f578063443cb4bc1461014d575b5f80fd5b6100b26100ad366004610c73565b6101d2565b6040519081526020015b60405180910390f35b5f546001545b604080519283526020830191909152016100bc565b6101077f000000000000000000000000000000000000000000000000000000000000000081565b6040516001600160a01b0390911681526020016100bc565b61013261012d366004610c73565b610248565b604080519384526020840192909252908201526060016100bc565b6100b25f5481565b6100b260015481565b6101077f000000000000000000000000000000000000000000000000000000000000000081565b6100cb610193366004610c73565b6104f9565b6101077f000000000000000000000000000000000000000000000000000000000000000081565b6100b26101cd366004610cb7565b610735565b5f8315806101de575082155b806101e7575081155b1561020557604051631f2a200560e01b815260040160405180910390fd5b5f610212856103e5610d0e565b905080610221856103e8610d0e565b61022b9190610d25565b6102358483610d0e565b61023f9190610d38565b95945050505050565b5f8080851580610256575084155b1561027457604051631f2a200560e01b815260040160405180910390fd5b5f7f00000000000000000000000000000000000000000000000000000000000000006001600160a01b03166318160ddd6040518163ffffffff1660e01b8152600401602060405180830381865afa1580156102d1573d5f803e3d5ffd5b505050506040513d601f19601f820116820180604052508101906102f59190610d57565b9050805f0361031d578693508592506103166103118486610d0e565b6109a6565b91506103a7565b5f805460015461032d908a610d0e565b6103379190610d38565b905086811161034b5787945080935061036d565b5f6001545f548961035c9190610d0e565b6103669190610d38565b9550879450505b5f546103a39061037d8488610d0e565b6103879190610d38565b6001546103948588610d0e565b61039e9190610d38565b610a1a565b9250505b848210806103b3575081155b156103d157604051633489be7560e21b815260040160405180910390fd5b6103fd7f0000000000000000000000000000000000000000000000000000000000000000333087610a33565b6104297f0000000000000000000000000000000000000000000000000000000000000000333086610a33565b6040516340c10f1960e01b8152336004820152602481018390527f00000000000000000000000000000000000000000000000000000000000000006001600160a01b0316906340c10f19906044015f604051808303815f87803b15801561048e575f80fd5b505af11580156104a0573d5f803e3d5ffd5b505050506104ac610ace565b604080518581526020810185905290810183905233907f64b83944e79c3ce8d4c297411de637c3e102d064677aac0c163976ebdcd6f50e9060600160405180910390a25093509350939050565b5f80845f0361051b57604051631f2a200560e01b815260040160405180910390fd5b5f7f00000000000000000000000000000000000000000000000000000000000000006001600160a01b03166318160ddd6040518163ffffffff1660e01b8152600401602060405180830381865afa158015610578573d5f803e3d5ffd5b505050506040513d601f19601f8201168201806040525081019061059c9190610d57565b9050805f54876105ac9190610d0e565b6105b69190610d38565b925080600154876105c79190610d0e565b6105d19190610d38565b9150848310806105e057508382105b806105e9575082155b806105f2575081155b156106105760405163749383ad60e01b815260040160405180910390fd5b604051632770a7eb60e21b8152336004820152602481018790527f00000000000000000000000000000000000000000000000000000000000000006001600160a01b031690639dc29fac906044015f604051808303815f87803b158015610675575f80fd5b505af1158015610687573d5f803e3d5ffd5b505050506106b67f00000000000000000000000000000000000000000000000000000000000000003385610be1565b6106e17f00000000000000000000000000000000000000000000000000000000000000003384610be1565b6106e9610ace565b604080518481526020810184905290810187905233907f1dc8bb69df2b8e91fbdcbfcf93d951b3f0000f085a95fe3f7946d6161439245d9060600160405180910390a250935093915050565b5f835f0361075657604051631f2a200560e01b815260040160405180910390fd5b6001600160a01b03821661077d5760405163d92e233d60e01b815260040160405180910390fd5b5f805f805f7f00000000000000000000000000000000000000000000000000000000000000006001600160a01b03168a6001600160a01b0316036108115750505f54600180549094507f000000000000000000000000000000000000000000000000000000000000000093507f000000000000000000000000000000000000000000000000000000000000000092506108b5565b7f00000000000000000000000000000000000000000000000000000000000000006001600160a01b03168a6001600160a01b03160361089c5750506001545f547f000000000000000000000000000000000000000000000000000000000000000093507f000000000000000000000000000000000000000000000000000000000000000092506108b5565b60405163c1ab6dc160e01b815260040160405180910390fd5b6108c08983836101d2565b9550878610156108e3576040516342301c2360e01b815260040160405180910390fd5b6108ef8433308c610a33565b6108fa838888610be1565b610902610ace565b8461092d577f000000000000000000000000000000000000000000000000000000000000000061094f565b7f00000000000000000000000000000000000000000000000000000000000000005b604080518b8152602081018990526001600160a01b03928316928d169133917f5380cf97d8f645d3c4896da60c053458dca03a3a31cec642ac80e1ddf0d8d02a910160405180910390a45050505050949350505050565b5f815f036109b557505f919050565b600382116109c557506001919050565b50805f6109d3600283610d38565b6109de906001610d25565b90505b81811015610a14579050806002816109f98186610d38565b610a039190610d25565b610a0d9190610d38565b90506109e1565b50919050565b5f818310610a285781610a2a565b825b90505b92915050565b6040516323b872dd60e01b81526001600160a01b0384811660048301528381166024830152604482018390528516906323b872dd906064016020604051808303815f875af1158015610a87573d5f803e3d5ffd5b505050506040513d601f19601f82011682018060405250810190610aab9190610d6e565b610ac85760405163c1ab6dc160e01b815260040160405180910390fd5b50505050565b6040516370a0823160e01b81523060048201527f00000000000000000000000000000000000000000000000000000000000000006001600160a01b0316906370a0823190602401602060405180830381865afa158015610b30573d5f803e3d5ffd5b505050506040513d601f19601f82011682018060405250810190610b549190610d57565b5f556040516370a0823160e01b81523060048201527f00000000000000000000000000000000000000000000000000000000000000006001600160a01b0316906370a0823190602401602060405180830381865afa158015610bb8573d5f803e3d5ffd5b505050506040513d601f19601f82011682018060405250810190610bdc9190610d57565b600155565b60405163a9059cbb60e01b81526001600160a01b0383811660048301526024820183905284169063a9059cbb906044016020604051808303815f875af1158015610c2d573d5f803e3d5ffd5b505050506040513d601f19601f82011682018060405250810190610c519190610d6e565b610c6e5760405163c1ab6dc160e01b815260040160405180910390fd5b505050565b5f805f60608486031215610c85575f80fd5b505081359360208301359350604090920135919050565b80356001600160a01b0381168114610cb2575f80fd5b919050565b5f805f8060808587031215610cca575f80fd5b610cd385610c9c565b93506020850135925060408501359150610cef60608601610c9c565b905092959194509250565b634e487b7160e01b5f52601160045260245ffd5b8082028115828204841417610a2d57610a2d610cfa565b80820180821115610a2d57610a2d610cfa565b5f82610d5257634e487b7160e01b5f52601260045260245ffd5b500490565b5f60208284031215610d67575f80fd5b5051919050565b5f60208284031215610d7e575f80fd5b81518015158114610d8d575f80fd5b939250505056fea26469706673582212201017a40cb78c8a32180f07cf8f281a25f851886ce9c36633f3c9ce12257a4faf64736f6c6343000818003360c060405234801562000010575f80fd5b5060405162000c7a38038062000c7a833981016040819052620000339162000132565b828260125f62000044848262000243565b50600162000053838262000243565b5060ff1660805250506001600160a01b031660a052506200030f9050565b634e487b7160e01b5f52604160045260245ffd5b5f82601f83011262000095575f80fd5b81516001600160401b0380821115620000b257620000b262000071565b604051601f8301601f19908116603f01168101908282118183101715620000dd57620000dd62000071565b8160405283815260209250866020858801011115620000fa575f80fd5b5f91505b838210156200011d5785820183015181830184015290820190620000fe565b5f602085830101528094505050505092915050565b5f805f6060848603121562000145575f80fd5b83516001600160401b03808211156200015c575f80fd5b6200016a8783880162000085565b9450602086015191508082111562000180575f80fd5b506200018f8682870162000085565b604086015190935090506001600160a01b0381168114620001ae575f80fd5b809150509250925092565b600181811c90821680620001ce57607f821691505b602082108103620001ed57634e487b7160e01b5f52602260045260245ffd5b50919050565b601f8211156200023e57805f5260205f20601f840160051c810160208510156200021a5750805b601f840160051c820191505b818110156200023b575f815560010162000226565b50505b505050565b81516001600160401b038111156200025f576200025f62000071565b6200027781620002708454620001b9565b84620001f3565b602080601f831160018114620002ad575f8415620002955750858301515b5f19600386901b1c1916600185901b17855562000307565b5f85815260208120601f198616915b82811015620002dd57888601518255948401946001909101908401620002bc565b5085821015620002fb57878501515f19600388901b60f8161c191681555b505060018460011b0185555b505050505050565b60805160a05161093b6200033f5f395f81816101250152818161040c015261047001525f610164015261093b5ff3fe608060405234801561000f575f80fd5b50600436106100b1575f3560e01c806340c10f191161006e57806340c10f191461019857806370a08231146101ad57806395d89b41146101cc5780639dc29fac146101d4578063a9059cbb146101e7578063dd62ed3e146101fa575f80fd5b806306fdde03146100b5578063095ea7b3146100d357806318160ddd146100f657806323b872dd1461010d5780632a94394514610120578063313ce5671461015f575b5f80fd5b6100bd610224565b6040516100ca919061077a565b60405180910390f35b6100e66100e13660046107e1565b6102af565b60405190151581526020016100ca565b6100ff60025481565b6040519081526020016100ca565b6100e661011b366004610809565b61033b565b6101477f000000000000000000000000000000000000000000000000000000000000000081565b6040516001600160a01b0390911681526020016100ca565b6101867f000000000000000000000000000000000000000000000000000000000000000081565b60405160ff90911681526020016100ca565b6101ab6101a63660046107e1565b610401565b005b6100ff6101bb366004610842565b60036020525f908152604090205481565b6100bd610458565b6101ab6101e23660046107e1565b610465565b6100e66101f53660046107e1565b6104b8565b6100ff610208366004610862565b600460209081525f928352604080842090915290825290205481565b5f805461023090610893565b80601f016020809104026020016040519081016040528092919081815260200182805461025c90610893565b80156102a75780601f1061027e576101008083540402835291602001916102a7565b820191905f5260205f20905b81548152906001019060200180831161028a57829003601f168201915b505050505081565b5f6001600160a01b0383166102d75760405163d92e233d60e01b815260040160405180910390fd5b335f8181526004602090815260408083206001600160a01b03881680855290835292819020869055518581529192917f8c5be1e5ebec7d5bd14f71427d1e84f3dd0314c0f7b2291e5b200ac8c7c3b925910160405180910390a35060015b92915050565b6001600160a01b0383165f9081526004602090815260408083203384529091528120545f1981146103eb5782811015610387576040516313be252b60e01b815260040160405180910390fd5b61039183826108df565b6001600160a01b0386165f81815260046020908152604080832033808552908352928190208590555193845290927f8c5be1e5ebec7d5bd14f71427d1e84f3dd0314c0f7b2291e5b200ac8c7c3b925910160405180910390a35b6103f68585856104cd565b506001949350505050565b336001600160a01b037f0000000000000000000000000000000000000000000000000000000000000000161461044a576040516306da2ed360e01b815260040160405180910390fd5b61045482826105ce565b5050565b6001805461023090610893565b336001600160a01b037f000000000000000000000000000000000000000000000000000000000000000016146104ae576040516306da2ed360e01b815260040160405180910390fd5b610454828261069b565b5f6104c43384846104cd565b50600192915050565b6001600160a01b03831615806104ea57506001600160a01b038216155b156105085760405163d92e233d60e01b815260040160405180910390fd5b805f0361052857604051631f2a200560e01b815260040160405180910390fd5b6001600160a01b0383165f908152600360205260409020548181101561056157604051631e9acf1760e31b815260040160405180910390fd5b6001600160a01b038085165f8181526003602052604080822086860390559286168082529083902080548601905591517fddf252ad1be2c89b69c2b068fc378daa952ba7f163c4a11628f55a4df523b3ef906105c09086815260200190565b60405180910390a350505050565b6001600160a01b0382166105f55760405163d92e233d60e01b815260040160405180910390fd5b805f0361061557604051631f2a200560e01b815260040160405180910390fd5b8060025f82825461062691906108f2565b90915550506001600160a01b0382165f90815260036020526040812080548392906106529084906108f2565b90915550506040518181526001600160a01b038316905f907fddf252ad1be2c89b69c2b068fc378daa952ba7f163c4a11628f55a4df523b3ef9060200160405180910390a35050565b6001600160a01b0382166106c25760405163d92e233d60e01b815260040160405180910390fd5b805f036106e257604051631f2a200560e01b815260040160405180910390fd5b6001600160a01b0382165f908152600360205260409020548181101561071b57604051631e9acf1760e31b815260040160405180910390fd5b6001600160a01b0383165f8181526003602090815260408083208686039055600280548790039055518581529192917fddf252ad1be2c89b69c2b068fc378daa952ba7f163c4a11628f55a4df523b3ef910160405180910390a3505050565b5f602080835283518060208501525f5b818110156107a65785810183015185820160400152820161078a565b505f604082860101526040601f19601f8301168501019250505092915050565b80356001600160a01b03811681146107dc575f80fd5b919050565b5f80604083850312156107f2575f80fd5b6107fb836107c6565b946020939093013593505050565b5f805f6060848603121561081b575f80fd5b610824846107c6565b9250610832602085016107c6565b9150604084013590509250925092565b5f60208284031215610852575f80fd5b61085b826107c6565b9392505050565b5f8060408385031215610873575f80fd5b61087c836107c6565b915061088a602084016107c6565b90509250929050565b600181811c908216806108a757607f821691505b6020821081036108c557634e487b7160e01b5f52602260045260245ffd5b50919050565b634e487b7160e01b5f52601160045260245ffd5b81810381811115610335576103356108cb565b80820180821115610335576103356108cb56fea2646970667358221220b99b3f3ecfa20e6856b34e150efb705230df07b6cfb13d8a270dc619fd7fc84064736f6c63430008180033","linkReferences":{}},"methodIdentifiers":{"addLiquidity(uint256,uint256,uint256)":"422f1043","getAmountOut(uint256,uint256,uint256)":"054d50d4","getReserves()":"0902f1ac","lpToken()":"5fcbd285","removeLiquidity(uint256,uint256,uint256)":"857620e1","reserve0()":"443cb4bc","reserve1()":"5a76f25e","swap(address,uint256,uint256,address)":"f3e6ea8a","token0()":"0dfe1681","token1()":"d21220a7"},"id":21}